{
  "_format": "hh-sol-artifact-1",
  "contractName": "CriptoSello",
  "sourceName": "contracts/CriptoSello.sol",
  "abi": [
    {
      "inputs": [
        {
          "internalType": "address",
          "name": "_ddrrAddress",
          "type": "address"
        }
      ],
      "stateMutability": "nonpayable",
      "type": "constructor"
    },
    {
      "inputs": [
        {
          "internalType": "address",
          "name": "sender",
          "type": "address"
        },
        {
          "internalType": "uint256",
          "name": "tokenId",
          "type": "uint256"
        },
        {
          "internalType": "address",
          "name": "owner",
          "type": "address"
        }
      ],
      "name": "ERC721IncorrectOwner",
      "type": "error"
    },
    {
      "inputs": [
        {
          "internalType": "address",
          "name": "operator",
          "type": "address"
        },
        {
          "internalType": "uint256",
          "name": "tokenId",
          "type": "uint256"
        }
      ],
      "name": "ERC721InsufficientApproval",
      "type": "error"
    },
    {
      "inputs": [
        {
          "internalType": "address",
          "name": "approver",
          "type": "address"
        }
      ],
      "name": "ERC721InvalidApprover",
      "type": "error"
    },
    {
      "inputs": [
        {
          "internalType": "address",
          "name": "operator",
          "type": "address"
        }
      ],
      "name": "ERC721InvalidOperator",
      "type": "error"
    },
    {
      "inputs": [
        {
          "internalType": "address",
          "name": "owner",
          "type": "address"
        }
      ],
      "name": "ERC721InvalidOwner",
      "type": "error"
    },
    {
      "inputs": [
        {
          "internalType": "address",
          "name": "receiver",
          "type": "address"
        }
      ],
      "name": "ERC721InvalidReceiver",
      "type": "error"
    },
    {
      "inputs": [
        {
          "internalType": "address",
          "name": "sender",
          "type": "address"
        }
      ],
      "name": "ERC721InvalidSender",
      "type": "error"
    },
    {
      "inputs": [
        {
          "internalType": "uint256",
          "name": "tokenId",
          "type": "uint256"
        }
      ],
      "name": "ERC721NonexistentToken",
      "type": "error"
    },
    {
      "inputs": [
        {
          "internalType": "address",
          "name": "owner",
          "type": "address"
        }
      ],
      "name": "OwnableInvalidOwner",
      "type": "error"
    },
    {
      "inputs": [
        {
          "internalType": "address",
          "name": "account",
          "type": "address"
        }
      ],
      "name": "OwnableUnauthorizedAccount",
      "type": "error"
    },
    {
      "anonymous": false,
      "inputs": [
        {
          "indexed": true,
          "internalType": "address",
          "name": "owner",
          "type": "address"
        },
        {
          "indexed": true,
          "internalType": "address",
          "name": "approved",
          "type": "address"
        },
        {
          "indexed": true,
          "internalType": "uint256",
          "name": "tokenId",
          "type": "uint256"
        }
      ],
      "name": "Approval",
      "type": "event"
    },
    {
      "anonymous": false,
      "inputs": [
        {
          "indexed": true,
          "internalType": "address",
          "name": "owner",
          "type": "address"
        },
        {
          "indexed": true,
          "internalType": "address",
          "name": "operator",
          "type": "address"
        },
        {
          "indexed": false,
          "internalType": "bool",
          "name": "approved",
          "type": "bool"
        }
      ],
      "name": "ApprovalForAll",
      "type": "event"
    },
    {
      "anonymous": false,
      "inputs": [
        {
          "indexed": true,
          "internalType": "address",
          "name": "previousOwner",
          "type": "address"
        },
        {
          "indexed": true,
          "internalType": "address",
          "name": "newOwner",
          "type": "address"
        }
      ],
      "name": "OwnershipTransferred",
      "type": "event"
    },
    {
      "anonymous": false,
      "inputs": [
        {
          "indexed": true,
          "internalType": "uint256",
          "name": "tokenId",
          "type": "uint256"
        },
        {
          "indexed": true,
          "internalType": "address",
          "name": "owner",
          "type": "address"
        },
        {
          "indexed": false,
          "internalType": "string",
          "name": "ownerInfo",
          "type": "string"
        },
        {
          "indexed": false,
          "internalType": "string",
          "name": "details",
          "type": "string"
        },
        {
          "indexed": false,
          "internalType": "string",
          "name": "legalDocsHash",
          "type": "string"
        }
      ],
      "name": "PropertyRegistered",
      "type": "event"
    },
    {
      "anonymous": false,
      "inputs": [
        {
          "indexed": true,
          "internalType": "uint256",
          "name": "tokenId",
          "type": "uint256"
        },
        {
          "indexed": false,
          "internalType": "enum CriptoSello.PropertyState",
          "name": "newState",
          "type": "uint8"
        }
      ],
      "name": "PropertyStateChanged",
      "type": "event"
    },
    {
      "anonymous": false,
      "inputs": [
        {
          "indexed": true,
          "internalType": "address",
          "name": "from",
          "type": "address"
        },
        {
          "indexed": true,
          "internalType": "address",
          "name": "to",
          "type": "address"
        },
        {
          "indexed": true,
          "internalType": "uint256",
          "name": "tokenId",
          "type": "uint256"
        }
      ],
      "name": "Transfer",
      "type": "event"
    },
    {
      "inputs": [
        {
          "internalType": "address",
          "name": "_notaryAddress",
          "type": "address"
        }
      ],
      "name": "addNotary",
      "outputs": [],
      "stateMutability": "nonpayable",
      "type": "function"
    },
    {
      "inputs": [
        {
          "internalType": "address",
          "name": "to",
          "type": "address"
        },
        {
          "internalType": "uint256",
          "name": "tokenId",
          "type": "uint256"
        }
      ],
      "name": "approve",
      "outputs": [],
      "stateMutability": "nonpayable",
      "type": "function"
    },
    {
      "inputs": [
        {
          "internalType": "address",
          "name": "owner",
          "type": "address"
        }
      ],
      "name": "balanceOf",
      "outputs": [
        {
          "internalType": "uint256",
          "name": "",
          "type": "uint256"
        }
      ],
      "stateMutability": "view",
      "type": "function"
    },
    {
      "inputs": [
        {
          "internalType": "address",
          "name": "_to",
          "type": "address"
        },
        {
          "internalType": "uint256",
          "name": "_tokenId",
          "type": "uint256"
        },
        {
          "internalType": "string",
          "name": "_ownerInfo",
          "type": "string"
        },
        {
          "internalType": "string",
          "name": "_details",
          "type": "string"
        },
        {
          "internalType": "string",
          "name": "_legalDocsHash",
          "type": "string"
        }
      ],
      "name": "createProperty",
      "outputs": [],
      "stateMutability": "nonpayable",
      "type": "function"
    },
    {
      "inputs": [],
      "name": "ddrrAddress",
      "outputs": [
        {
          "internalType": "address",
          "name": "",
          "type": "address"
        }
      ],
      "stateMutability": "view",
      "type": "function"
    },
    {
      "inputs": [
        {
          "internalType": "uint256",
          "name": "tokenId",
          "type": "uint256"
        }
      ],
      "name": "getApproved",
      "outputs": [
        {
          "internalType": "address",
          "name": "",
          "type": "address"
        }
      ],
      "stateMutability": "view",
      "type": "function"
    },
    {
      "inputs": [
        {
          "internalType": "uint256",
          "name": "_tokenId",
          "type": "uint256"
        }
      ],
      "name": "getProperty",
      "outputs": [
        {
          "internalType": "string",
          "name": "ownerInfo",
          "type": "string"
        },
        {
          "internalType": "string",
          "name": "details",
          "type": "string"
        },
        {
          "internalType": "string",
          "name": "legalDocsHash",
          "type": "string"
        },
        {
          "internalType": "enum CriptoSello.PropertyState",
          "name": "state",
          "type": "uint8"
        }
      ],
      "stateMutability": "view",
      "type": "function"
    },
    {
      "inputs": [
        {
          "internalType": "address",
          "name": "owner",
          "type": "address"
        },
        {
          "internalType": "address",
          "name": "operator",
          "type": "address"
        }
      ],
      "name": "isApprovedForAll",
      "outputs": [
        {
          "internalType": "bool",
          "name": "",
          "type": "bool"
        }
      ],
      "stateMutability": "view",
      "type": "function"
    },
    {
      "inputs": [],
      "name": "name",
      "outputs": [
        {
          "internalType": "string",
          "name": "",
          "type": "string"
        }
      ],
      "stateMutability": "view",
      "type": "function"
    },
    {
      "inputs": [
        {
          "internalType": "address",
          "name": "",
          "type": "address"
        }
      ],
      "name": "notaries",
      "outputs": [
        {
          "internalType": "bool",
          "name": "",
          "type": "bool"
        }
      ],
      "stateMutability": "view",
      "type": "function"
    },
    {
      "inputs": [],
      "name": "owner",
      "outputs": [
        {
          "internalType": "address",
          "name": "",
          "type": "address"
        }
      ],
      "stateMutability": "view",
      "type": "function"
    },
    {
      "inputs": [
        {
          "internalType": "uint256",
          "name": "tokenId",
          "type": "uint256"
        }
      ],
      "name": "ownerOf",
      "outputs": [
        {
          "internalType": "address",
          "name": "",
          "type": "address"
        }
      ],
      "stateMutability": "view",
      "type": "function"
    },
    {
      "inputs": [
        {
          "internalType": "uint256",
          "name": "",
          "type": "uint256"
        }
      ],
      "name": "properties",
      "outputs": [
        {
          "internalType": "string",
          "name": "ownerInfo",
          "type": "string"
        },
        {
          "internalType": "string",
          "name": "details",
          "type": "string"
        },
        {
          "internalType": "string",
          "name": "legalDocsHash",
          "type": "string"
        },
        {
          "internalType": "enum CriptoSello.PropertyState",
          "name": "state",
          "type": "uint8"
        }
      ],
      "stateMutability": "view",
      "type": "function"
    },
    {
      "inputs": [
        {
          "internalType": "uint256",
          "name": "_tokenId",
          "type": "uint256"
        }
      ],
      "name": "registerProperty",
      "outputs": [],
      "stateMutability": "nonpayable",
      "type": "function"
    },
    {
      "inputs": [
        {
          "internalType": "address",
          "name": "_notaryAddress",
          "type": "address"
        }
      ],
      "name": "removeNotary",
      "outputs": [],
      "stateMutability": "nonpayable",
      "type": "function"
    },
    {
      "inputs": [],
      "name": "renounceOwnership",
      "outputs": [],
      "stateMutability": "nonpayable",
      "type": "function"
    },
    {
      "inputs": [
        {
          "internalType": "address",
          "name": "from",
          "type": "address"
        },
        {
          "internalType": "address",
          "name": "to",
          "type": "address"
        },
        {
          "internalType": "uint256",
          "name": "tokenId",
          "type": "uint256"
        }
      ],
      "name": "safeTransferFrom",
      "outputs": [],
      "stateMutability": "nonpayable",
      "type": "function"
    },
    {
      "inputs": [
        {
          "internalType": "address",
          "name": "from",
          "type": "address"
        },
        {
          "internalType": "address",
          "name": "to",
          "type": "address"
        },
        {
          "internalType": "uint256",
          "name": "tokenId",
          "type": "uint256"
        },
        {
          "internalType": "bytes",
          "name": "data",
          "type": "bytes"
        }
      ],
      "name": "safeTransferFrom",
      "outputs": [],
      "stateMutability": "nonpayable",
      "type": "function"
    },
    {
      "inputs": [
        {
          "internalType": "address",
          "name": "operator",
          "type": "address"
        },
        {
          "internalType": "bool",
          "name": "approved",
          "type": "bool"
        }
      ],
      "name": "setApprovalForAll",
      "outputs": [],
      "stateMutability": "nonpayable",
      "type": "function"
    },
    {
      "inputs": [
        {
          "internalType": "bytes4",
          "name": "interfaceId",
          "type": "bytes4"
        }
      ],
      "name": "supportsInterface",
      "outputs": [
        {
          "internalType": "bool",
          "name": "",
          "type": "bool"
        }
      ],
      "stateMutability": "view",
      "type": "function"
    },
    {
      "inputs": [],
      "name": "symbol",
      "outputs": [
        {
          "internalType": "string",
          "name": "",
          "type": "string"
        }
      ],
      "stateMutability": "view",
      "type": "function"
    },
    {
      "inputs": [
        {
          "internalType": "uint256",
          "name": "tokenId",
          "type": "uint256"
        }
      ],
      "name": "tokenURI",
      "outputs": [
        {
          "internalType": "string",
          "name": "",
          "type": "string"
        }
      ],
      "stateMutability": "view",
      "type": "function"
    },
    {
      "inputs": [
        {
          "internalType": "address",
          "name": "from",
          "type": "address"
        },
        {
          "internalType": "address",
          "name": "to",
          "type": "address"
        },
        {
          "internalType": "uint256",
          "name": "tokenId",
          "type": "uint256"
        }
      ],
      "name": "transferFrom",
      "outputs": [],
      "stateMutability": "nonpayable",
      "type": "function"
    },
    {
      "inputs": [
        {
          "internalType": "address",
          "name": "newOwner",
          "type": "address"
        }
      ],
      "name": "transferOwnership",
      "outputs": [],
      "stateMutability": "nonpayable",
      "type": "function"
    },
    {
      "inputs": [
        {
          "internalType": "uint256",
          "name": "_tokenId",
          "type": "uint256"
        }
      ],
      "name": "validateProperty",
      "outputs": [],
      "stateMutability": "nonpayable",
      "type": "function"
    }
  ],
  "bytecode": "0x60806040523480156200001157600080fd5b506040516200204d3803806200204d83398101604081905262000034916200015d565b336040518060400160405280601381526020017f43726970746f53656c6c6f50726f7065727479000000000000000000000000008152506040518060400160405280600381526020016204353560ec1b815250816000908162000098919062000236565b506001620000a7828262000236565b5050506001600160a01b038116620000d957604051631e4fbdf760e01b81526000600482015260240160405180910390fd5b620000e4816200010b565b50600980546001600160a01b0319166001600160a01b039290921691909117905562000302565b600680546001600160a01b038381166001600160a01b0319831681179093556040519116919082907f8be0079c531659141344cd1fd0a4f28419497f9722a3daafe3b4186f6b6457e090600090a35050565b6000602082840312156200017057600080fd5b81516001600160a01b03811681146200018857600080fd5b9392505050565b634e487b7160e01b600052604160045260246000fd5b600181811c90821680620001ba57607f821691505b602082108103620001db57634e487b7160e01b600052602260045260246000fd5b50919050565b601f82111562000231576000816000526020600020601f850160051c810160208610156200020c5750805b601f850160051c820191505b818110156200022d5782815560010162000218565b5050505b505050565b81516001600160401b038111156200025257620002526200018f565b6200026a81620002638454620001a5565b84620001e1565b602080601f831160018114620002a25760008415620002895750858301515b600019600386901b1c1916600185901b1785556200022d565b600085815260208120601f198616915b82811015620002d357888601518255948401946001909101908401620002b2565b5085821015620002f25787850151600019600388901b60f8161c191681555b5050505050600190811b01905550565b611d3b80620003126000396000f3fe608060405234801561001057600080fd5b50600436106101725760003560e01c80636352211e116100de578063a22cb46511610097578063c9265ad611610071578063c9265ad61461034d578063e985e9c514610360578063f2fde38b14610373578063f7b108081461038657600080fd5b8063a22cb46514610314578063b88d4fde14610327578063c87b56dd1461033a57600080fd5b80636352211e146102ac57806370a08231146102bf578063715018a6146102e057806386785a6f146102e85780638da5cb5b146102fb57806395d89b411461030c57600080fd5b80630c11634d116101305780630c11634d1461022a578063128e32821461023d57806323b872dd1461025057806332665ffb146102635780633e6f3dca1461028657806342842e0e1461029957600080fd5b8062e168f01461017757806301ffc9a7146101af5780630588565f146101c257806306fdde03146101d7578063081812fc146101ec578063095ea7b314610217575b600080fd5b61019a6101853660046116c8565b60086020526000908152604090205460ff1681565b60405190151581526020015b60405180910390f35b61019a6101bd3660046116f9565b610399565b6101d56101d03660046116c8565b6103eb565b005b6101df610417565b6040516101a69190611766565b6101ff6101fa366004611779565b6104a9565b6040516001600160a01b0390911681526020016101a6565b6101d5610225366004611792565b6104d2565b6009546101ff906001600160a01b031681565b6101d561024b366004611779565b6104e1565b6101d561025e3660046117bc565b61063f565b610276610271366004611779565b6106ca565b6040516101a69493929190611830565b6101d5610294366004611779565b6108ce565b6101d56102a73660046117bc565b610a16565b6101ff6102ba366004611779565b610a36565b6102d26102cd3660046116c8565b610a41565b6040519081526020016101a6565b6101d5610a89565b6101d56102f63660046116c8565b610a9d565b6006546001600160a01b03166101ff565b6101df610ac6565b6101d5610322366004611882565b610ad5565b6101d561033536600461194a565b610ae0565b6101df610348366004611779565b610af8565b6101d561035b3660046119e6565b610b6d565b61019a61036e366004611a89565b610d06565b6101d56103813660046116c8565b610d34565b610276610394366004611779565b610d72565b60006001600160e01b031982166380ac58cd60e01b14806103ca57506001600160e01b03198216635b5e139f60e01b145b806103e557506301ffc9a760e01b6001600160e01b03198316145b92915050565b6103f3610f35565b6001600160a01b03166000908152600860205260409020805460ff19166001179055565b60606000805461042690611abc565b80601f016020809104026020016040519081016040528092919081815260200182805461045290611abc565b801561049f5780601f106104745761010080835404028352916020019161049f565b820191906000526020600020905b81548152906001019060200180831161048257829003601f168201915b5050505050905090565b60006104b482610f62565b506000828152600460205260409020546001600160a01b03166103e5565b6104dd828233610f9b565b5050565b3360009081526008602052604090205460ff1661053e5760405162461bcd60e51b815260206004820152601660248201527543616c6c6572206973206e6f742061206e6f7461727960501b60448201526064015b60405180910390fd5b61054781610fa8565b6105635760405162461bcd60e51b815260040161053590611af6565b60008181526007602052604081206003015460ff166002811115610589576105896117f8565b146105e15760405162461bcd60e51b815260206004820152602260248201527f50726f7065727479206973206e6f7420696e20494e5f4e4f5441525920737461604482015261746560f01b6064820152608401610535565b600081815260076020526040902060030180546001919060ff191682800217905550807f6d9c197081266a2ec3fd92848c81dc7c94a4d65efa0bd28621edce5c633a0e1660016040516106349190611b2d565b60405180910390a250565b6001600160a01b03821661066957604051633250574960e11b815260006004820152602401610535565b6000610676838333610fc5565b9050836001600160a01b0316816001600160a01b0316146106c4576040516364283d7b60e01b81526001600160a01b0380861660048301526024820184905282166044820152606401610535565b50505050565b606080606060006106da85610fa8565b6106f65760405162461bcd60e51b815260040161053590611af6565b60008581526007602052604090206003810154815482916001830191600284019160ff1690849061072690611abc565b80601f016020809104026020016040519081016040528092919081815260200182805461075290611abc565b801561079f5780601f106107745761010080835404028352916020019161079f565b820191906000526020600020905b81548152906001019060200180831161078257829003601f168201915b505050505093508280546107b290611abc565b80601f01602080910402602001604051908101604052809291908181526020018280546107de90611abc565b801561082b5780601f106108005761010080835404028352916020019161082b565b820191906000526020600020905b81548152906001019060200180831161080e57829003601f168201915b5050505050925081805461083e90611abc565b80601f016020809104026020016040519081016040528092919081815260200182805461086a90611abc565b80156108b75780601f1061088c576101008083540402835291602001916108b7565b820191906000526020600020905b81548152906001019060200180831161089a57829003601f168201915b505050505091509450945094509450509193509193565b6009546001600160a01b0316331461091d5760405162461bcd60e51b815260206004820152601260248201527121b0b63632b91034b9903737ba102222292960711b6044820152606401610535565b61092681610fa8565b6109425760405162461bcd60e51b815260040161053590611af6565b600160008281526007602052604090206003015460ff16600281111561096a5761096a6117f8565b146109c25760405162461bcd60e51b815260206004820152602260248201527f50726f7065727479206973206e6f7420696e2056414c49444154454420737461604482015261746560f01b6064820152608401610535565b600081815260076020526040902060030180546002919060ff19166001830217905550807f6d9c197081266a2ec3fd92848c81dc7c94a4d65efa0bd28621edce5c633a0e1660026040516106349190611b2d565b610a3183838360405180602001604052806000815250610ae0565b505050565b60006103e582610f62565b60006001600160a01b038216610a6d576040516322718ad960e21b815260006004820152602401610535565b506001600160a01b031660009081526003602052604090205490565b610a91610f35565b610a9b60006110be565b565b610aa5610f35565b6001600160a01b03166000908152600860205260409020805460ff19169055565b60606001805461042690611abc565b6104dd338383611110565b610aeb84848461063f565b6106c433858585856111af565b6060610b0382610f62565b506000610b1b60408051602081019091526000815290565b90506000815111610b3b5760405180602001604052806000815250610b66565b80610b45846112da565b604051602001610b56929190611b3b565b6040516020818303038152906040525b9392505050565b3360009081526008602052604090205460ff16610bc55760405162461bcd60e51b815260206004820152601660248201527543616c6c6572206973206e6f742061206e6f7461727960501b6044820152606401610535565b610bce84610fa8565b15610c1b5760405162461bcd60e51b815260206004820152601760248201527f50726f706572747920616c7265616479206578697374730000000000000000006044820152606401610535565b610c25858561136d565b60408051608081018252848152602081018490529081018290526060810160009052600085815260076020526040902081518190610c639082611bb2565b5060208201516001820190610c789082611bb2565b5060408201516002820190610c8d9082611bb2565b50606082015160038201805460ff19166001836002811115610cb157610cb16117f8565b0217905550905050846001600160a01b0316847fccd9eacc2951faf606f4990aac2ca22a8dc259bdf2883713b2b85a46e8430a1e858585604051610cf793929190611c72565b60405180910390a35050505050565b6001600160a01b03918216600090815260056020908152604080832093909416825291909152205460ff1690565b610d3c610f35565b6001600160a01b038116610d6657604051631e4fbdf760e01b815260006004820152602401610535565b610d6f816110be565b50565b600760205260009081526040902080548190610d8d90611abc565b80601f0160208091040260200160405190810160405280929190818152602001828054610db990611abc565b8015610e065780601f10610ddb57610100808354040283529160200191610e06565b820191906000526020600020905b815481529060010190602001808311610de957829003601f168201915b505050505090806001018054610e1b90611abc565b80601f0160208091040260200160405190810160405280929190818152602001828054610e4790611abc565b8015610e945780601f10610e6957610100808354040283529160200191610e94565b820191906000526020600020905b815481529060010190602001808311610e7757829003601f168201915b505050505090806002018054610ea990611abc565b80601f0160208091040260200160405190810160405280929190818152602001828054610ed590611abc565b8015610f225780601f10610ef757610100808354040283529160200191610f22565b820191906000526020600020905b815481529060010190602001808311610f0557829003601f168201915b5050506003909301549192505060ff1684565b6006546001600160a01b03163314610a9b5760405163118cdaa760e01b8152336004820152602401610535565b6000818152600260205260408120546001600160a01b0316806103e557604051637e27328960e01b815260048101849052602401610535565b610a318383836001611387565b600080610fb483610a36565b6001600160a01b0316141592915050565b6000828152600260205260408120546001600160a01b0390811690831615610ff257610ff281848661148d565b6001600160a01b038116156110305761100f600085600080611387565b6001600160a01b038116600090815260036020526040902080546000190190555b6001600160a01b0385161561105f576001600160a01b0385166000908152600360205260409020805460010190555b60008481526002602052604080822080546001600160a01b0319166001600160a01b0389811691821790925591518793918516917fddf252ad1be2c89b69c2b068fc378daa952ba7f163c4a11628f55a4df523b3ef91a4949350505050565b600680546001600160a01b038381166001600160a01b0319831681179093556040519116919082907f8be0079c531659141344cd1fd0a4f28419497f9722a3daafe3b4186f6b6457e090600090a35050565b6001600160a01b03821661114257604051630b61174360e31b81526001600160a01b0383166004820152602401610535565b6001600160a01b03838116600081815260056020908152604080832094871680845294825291829020805460ff191686151590811790915591519182527f17307eab39ab6107e8899845ad3d59bd9653f200f220920489ca2b5937696c31910160405180910390a3505050565b6001600160a01b0383163b156112d357604051630a85bd0160e11b81526001600160a01b0384169063150b7a02906111f1908890889087908790600401611cb5565b6020604051808303816000875af192505050801561122c575060408051601f3d908101601f1916820190925261122991810190611ce8565b60015b611295573d80801561125a576040519150601f19603f3d011682016040523d82523d6000602084013e61125f565b606091505b50805160000361128d57604051633250574960e11b81526001600160a01b0385166004820152602401610535565b805160208201fd5b6001600160e01b03198116630a85bd0160e11b146112d157604051633250574960e11b81526001600160a01b0385166004820152602401610535565b505b5050505050565b606060006112e7836114f1565b600101905060008167ffffffffffffffff811115611307576113076118be565b6040519080825280601f01601f191660200182016040528015611331576020820181803683370190505b5090508181016020015b600019016f181899199a1a9b1b9c1cb0b131b232b360811b600a86061a8153600a850494508461133b57509392505050565b6104dd8282604051806020016040528060008152506115c9565b808061139b57506001600160a01b03821615155b1561145d5760006113ab84610f62565b90506001600160a01b038316158015906113d75750826001600160a01b0316816001600160a01b031614155b80156113ea57506113e88184610d06565b155b156114135760405163a9fbf51f60e01b81526001600160a01b0384166004820152602401610535565b811561145b5783856001600160a01b0316826001600160a01b03167f8c5be1e5ebec7d5bd14f71427d1e84f3dd0314c0f7b2291e5b200ac8c7c3b92560405160405180910390a45b505b5050600090815260046020526040902080546001600160a01b0319166001600160a01b0392909216919091179055565b6114988383836115e1565b610a31576001600160a01b0383166114c657604051637e27328960e01b815260048101829052602401610535565b60405163177e802f60e01b81526001600160a01b038316600482015260248101829052604401610535565b60008072184f03e93ff9f4daa797ed6e38ed64bf6a1f0160401b83106115305772184f03e93ff9f4daa797ed6e38ed64bf6a1f0160401b830492506040015b6d04ee2d6d415b85acef8100000000831061155c576d04ee2d6d415b85acef8100000000830492506020015b662386f26fc10000831061157a57662386f26fc10000830492506010015b6305f5e1008310611592576305f5e100830492506008015b61271083106115a657612710830492506004015b606483106115b8576064830492506002015b600a83106103e55760010192915050565b6115d38383611647565b610a313360008585856111af565b60006001600160a01b0383161580159061163f5750826001600160a01b0316846001600160a01b0316148061161b575061161b8484610d06565b8061163f57506000828152600460205260409020546001600160a01b038481169116145b949350505050565b6001600160a01b03821661167157604051633250574960e11b815260006004820152602401610535565b600061167f83836000610fc5565b90506001600160a01b03811615610a31576040516339e3563760e11b815260006004820152602401610535565b80356001600160a01b03811681146116c357600080fd5b919050565b6000602082840312156116da57600080fd5b610b66826116ac565b6001600160e01b031981168114610d6f57600080fd5b60006020828403121561170b57600080fd5b8135610b66816116e3565b60005b83811015611731578181015183820152602001611719565b50506000910152565b60008151808452611752816020860160208601611716565b601f01601f19169290920160200192915050565b602081526000610b66602083018461173a565b60006020828403121561178b57600080fd5b5035919050565b600080604083850312156117a557600080fd5b6117ae836116ac565b946020939093013593505050565b6000806000606084860312156117d157600080fd5b6117da846116ac565b92506117e8602085016116ac565b9150604084013590509250925092565b634e487b7160e01b600052602160045260246000fd5b6003811061182c57634e487b7160e01b600052602160045260246000fd5b9052565b608081526000611843608083018761173a565b8281036020840152611855818761173a565b90508281036040840152611869818661173a565b915050611879606083018461180e565b95945050505050565b6000806040838503121561189557600080fd5b61189e836116ac565b9150602083013580151581146118b357600080fd5b809150509250929050565b634e487b7160e01b600052604160045260246000fd5b600067ffffffffffffffff808411156118ef576118ef6118be565b604051601f8501601f19908116603f01168101908282118183101715611917576119176118be565b8160405280935085815286868601111561193057600080fd5b858560208301376000602087830101525050509392505050565b6000806000806080858703121561196057600080fd5b611969856116ac565b9350611977602086016116ac565b925060408501359150606085013567ffffffffffffffff81111561199a57600080fd5b8501601f810187136119ab57600080fd5b6119ba878235602084016118d4565b91505092959194509250565b600082601f8301126119d757600080fd5b610b66838335602085016118d4565b600080600080600060a086880312156119fe57600080fd5b611a07866116ac565b945060208601359350604086013567ffffffffffffffff80821115611a2b57600080fd5b611a3789838a016119c6565b94506060880135915080821115611a4d57600080fd5b611a5989838a016119c6565b93506080880135915080821115611a6f57600080fd5b50611a7c888289016119c6565b9150509295509295909350565b60008060408385031215611a9c57600080fd5b611aa5836116ac565b9150611ab3602084016116ac565b90509250929050565b600181811c90821680611ad057607f821691505b602082108103611af057634e487b7160e01b600052602260045260246000fd5b50919050565b60208082526017908201527f50726f706572747920646f6573206e6f74206578697374000000000000000000604082015260600190565b602081016103e5828461180e565b60008351611b4d818460208801611716565b835190830190611b61818360208801611716565b01949350505050565b601f821115610a31576000816000526020600020601f850160051c81016020861015611b935750805b601f850160051c820191505b818110156112d157828155600101611b9f565b815167ffffffffffffffff811115611bcc57611bcc6118be565b611be081611bda8454611abc565b84611b6a565b602080601f831160018114611c155760008415611bfd5750858301515b600019600386901b1c1916600185901b1785556112d1565b600085815260208120601f198616915b82811015611c4457888601518255948401946001909101908401611c25565b5085821015611c625787850151600019600388901b60f8161c191681555b5050505050600190811b01905550565b606081526000611c85606083018661173a565b8281036020840152611c97818661173a565b90508281036040840152611cab818561173a565b9695505050505050565b6001600160a01b0385811682528416602082015260408101839052608060608201819052600090611cab9083018461173a565b600060208284031215611cfa57600080fd5b8151610b66816116e356fea26469706673582212203bbcb8111acd686f45dc25310d5ae9bf09d78615259e9e88de6ea295091b514064736f6c63430008180033",
  "linkReferences": {},
  "deployedLinkReferences": {}
}